:100000000C9462000C948A000C948A000C948A0070
:100010000C948A000C948A000C948A000C94DD02E3
:100020000C948A000C948A000C948A000C948A0028
:100030000C948A000C948A000C948A000C948A0018
:100040000C943B020C948A000C94AB020C94850235
:100050000C948A000C948A000C948A000C948A00F8
:100060000C948A000C948A00000000080002010031
:100070000003040700000000000000000000000072
:10008000240027002A000000000023002600290089
:1000900000000000250028002B00040404040404D0
:1000A0000404020202020202030303030303010227
:1000B00004081020408001020408102001020408F6
:1000C0001020020311241FBECFEFD8E0DEBFCDBF4A
:1000D00011E0A0E0B1E0E6EFFAE002C005900D9279
:1000E000A631B107D9F721E0A6E1B1E001C01D9228
:1000F000A43DB207E1F710E0C2E6D0E004C02197CA
:10010000FE010E947305C136D107C9F70E946F0333
:100110000C9479050C94000090E0FC01E859FF4F25
:100120002491FC01E255FF4F3491FC01E656FF4F4C
:10013000E491EE23C9F0222339F0233001F1A8F431
:10014000213019F1223029F1F0E0EE0FFF1FE057C6
:10015000FF4FA591B4918FB7F894EC91611126C02F
:1001600030953E233C938FBF08952730A9F0283067
:10017000C9F0243049F7809180008F7D03C08091C1
:1001800080008F7780938000DFCF84B58F7784BD28
:10019000DBCF84B58F7DFBCF8091B0008F778093CC
:1001A000B000D2CF8091B0008F7DF9CF3E2BDACF57
:1001B000CF93DF9390E0FC01E255FF4F24918656E8
:1001C0009F4FFC0184918823D1F090E0880F991F04
:1001D000FC01E458FF4FA591B491FC01E057FF4F9B
:1001E000C591D49161110EC09FB7F8948C91E22F04
:1001F000E0958E238C932881E223E8839FBFDF91D3
:10020000CF9108958FB7F894EC91E22BEC938FBFC8
:10021000F6CF3FB7F8948091210190912201A091EF
:100220002301B091240126B5A89B05C02F3F19F0EA
:100230000196A11DB11D3FBFBA2FA92F982F882766
:10024000BC01CD01620F711D811D911D42E0660F41
:10025000771F881F991F4A95D1F70895AF92BF92D3
:10026000CF92DF92EF92FF920F931F93CF93DF9382
:100270006C017B018B01040F151FEB015E01AE18B1
:10028000BF08C017D10759F06991D601ED91FC91D3
:100290000190F081E02DC6010995892B79F7C50100
:1002A000DF91CF911F910F91FF90EF90DF90CF9052
:1002B000BF90AF900895FC01538D448D252F30E001
:1002C000842F90E0821B930B541710F0CF96089563
:1002D00001970895FC01918D828D981761F0A28D90
:1002E000AE0FBF2FB11D5D968C91928D9F5F9F7356
:1002F000928F90E008958FEF9FEF0895FC01918D0C
:10030000828D981731F0828DE80FF11D858D90E078
:1003100008958FEF9FEF0895FC01918D228D892F15
:1003200090E0805C9F4F821B91098F7399270895FD
:1003300085E291E00E948C0121E0892B09F420E004
:10034000822F089580E090E0892B29F00E94980187
:1003500081110C9400000895FC01A48DA80FB92F01
:10036000B11DA35ABF4F2C91848D90E001968F73DD
:100370009927848FA689B7892C93A089B1898C91FC
:10038000837080648C93938D848D981306C002884B
:10039000F389E02D80818F7D80830895EF92FF9215
:1003A0000F931F93CF93DF93EC0181E0888F9B8D98
:1003B0008C8D98131AC0E889F989808185FF15C052
:1003C0009FB7F894EE89FF896083E889F989808175
:1003D0008370806480839FBF81E090E0DF91CF9144
:1003E0001F910F91FF90EF900895F62E0B8D10E066
:1003F0000F5F1F4F0F731127E02E8C8D8E110CC0D5
:100400000FB607FCFACFE889F989808185FFF5CF1F
:10041000CE010E94AC01F1CFEB8DEC0FFD2FF11D51
:10042000E35AFF4FF0829FB7F8940B8FEA89FB895C
:1004300080818062CFCFCF93DF93EC01888D8823BA
:10044000B9F0AA89BB89E889F9898C9185FD03C037
:10045000808186FD0DC00FB607FCF7CF8C9185FF1C
:10046000F2CF808185FFEDCFCE010E94AC01E9CFB4
:10047000DF91CF9108951F920F920FB60F92112422
:100480002F933F938F939F93AF93BF9380911D01C1
:1004900090911E01A0911F01B091200130911C018B
:1004A00023E0230F2D3758F50196A11DB11D209390
:1004B0001C0180931D0190931E01A0931F01B09316
:1004C00020018091210190912201A0912301B091FE
:1004D00024010196A11DB11D809321019093220159
:1004E000A0932301B0932401BF91AF919F918F916D
:1004F0003F912F910F900FBE0F901F90189526E8F7
:10050000230F0296A11DB11DD2CF1F920F920FB6DD
:100510000F9211242F933F934F935F936F937F9389
:100520008F939F93AF93BF93EF93FF9385E291E0F7
:100530000E94AC01FF91EF91BF91AF919F918F917C
:100540007F916F915F914F913F912F910F900FBECF
:100550000F901F9018951F920F920FB60F921124B3
:100560002F938F939F93EF93FF93E0913501F09139
:1005700036018081E0913B01F0913C0182FD1BC07E
:10058000908180913E018F5F8F7320913F01821790
:1005900041F0E0913E01F0E0EB5DFE4F958F8093DE
:1005A0003E01FF91EF919F918F912F910F900FBE80
:1005B0000F901F9018958081F4CF1F920F920FB665
:1005C0000F9211242F933F934F935F936F937F93D9
:1005D0008F939F93AF93BF93EF93FF93F0E0E0E08F
:1005E0000995FF91EF91BF91AF919F918F917F916D
:1005F0006F915F914F913F912F910F900FBE0F9090
:100600001F901895E5E2F1E01382128288EE93E0E4
:10061000A0E0B0E084839583A683B78384E091E073
:100620009183808385EC90E09587848784EC90E0CB
:100630009787868780EC90E0918B808B81EC90E0AF
:10064000938B828B82EC90E0958B848B86EC90E090
:10065000978B868B118E128E138E148EEAEBF0E040
:10066000E491A2ECB1E01496EC931497E9EBF0E07E
:10067000E4911596EC93159786EA90E0FC0124919D
:10068000E22FF0E0EE0FFF1FE057FF4F259134916E
:1006900017963C932E931697E5EAF0E0E491F0E08C
:1006A000EE0FFF1FEA57FF4F2591349119963C93A7
:1006B0002E931897FC018491E82FF0E0EE0FFF1FB6
:1006C000E458FF4F859194911B969C938E931A97B3
:1006D00081EC9CE21D969C938E931C970895CF937A
:1006E000DF93CDB7DEB7A1970FB6F894DEBF0FBE8C
:1006F000CDBF789484B5826084BD84B5816084BDAB
:1007000085B5826085BD85B5816085BD80916E00AF
:10071000816080936E0010928100809181008260E0
:10072000809381008091810081608093810080911D
:1007300080008160809380008091B100846080930C
:10074000B1008091B00081608093B00080917A0008
:10075000846080937A0080917A00826080937A002E
:1007600080917A00816080937A0080917A0080681D
:1007700080937A001092C100E0913501F09136012A
:1007800082E08083E0913101F09132011082E091AA
:100790003301F09134018FEC808310923D01E091A0
:1007A0003901F0913A0186E08083E0913701F091C0
:1007B0003801808180618083E0913701F0913801B8
:1007C000808188608083E0913701F09138018081D9
:1007D00080688083E0913701F091380180818F7DBE
:1007E000808361E08CE00E94D80060E08BE00E9492
:1007F000D80061E08AE00E94D80061E083E00E94B6
:10080000D80061E086E00E94D8009AE0892E912C01
:10081000A12CB12C20E0222E20E0322EE091CC0140
:10082000F091CD0180819091C601892B8083E09168
:10083000C801F091C90190818091C60180958923FA
:1008400080838BE090E00197F1F7E091C801F0918F
:10085000C90180819091C601892B808383E290E059
:100860000197F1F7E091C801F091C9019081809161
:10087000C601809589238083E091CC01F091CD0160
:1008800090818091C601809589238083E091CA017F
:10089000F091CB0180819091C701892309F48AC02E
:1008A00090E080E0BC0190E080E029E330E040E0AF
:1008B00050E00E94510530931B0120931A0119A2A8
:1008C0008E010F5D1F4FCA01B901A50194010E945D
:1008D0005105605DF80162938F01211531054105D5
:1008E000510589F7309761F001900020E9F73197C1
:1008F000AF01401B510BB80185E291E00E942E012F
:1009000042E050E062E171E085E291E00E942E0158
:100910000E9409012B013C0182E3C82ED12CE12C5D
:10092000F12C0E9409016419750986099709683E2E
:10093000734081059105A8F3F1E0CF1AD108E108D1
:10094000F10828EE420E23E0521E611C711CC114F6
:10095000D104E104F10429F700911A0110911B015F
:1009600001151105D9F006391105C4F461E00F3005
:1009700011050CF060E086E00E948C000A30110541
:100980000CF08AC061E083E00E948C0061E00530D9
:1009900011050CF060E08AE00E948C002114310403
:1009A00009F43CCF0E949801882309F437CF0E94B4
:1009B000000034CF0E940901AB01BC018091CE013F
:1009C0009091CF01B0E0A0E08855994EAF4FBF4F56
:1009D000840F951FA61FB71F8093D0019093D1015C
:1009E000A093D201B093D301E091CA01F091CB0161
:1009F00080819091C701892381F40E9409010091AF
:100A0000D0011091D1012091D2013091D30106176C
:100A100017072807390740F743CF0E9409012091A3
:100A2000CE013091CF01620F731F811D911D609324
:100A3000D0017093D1018093D2019093D301E091C2
:100A4000CA01F091CB0180819091C701892381F087
:100A50000E9409010091D0011091D1012091D20191
:100A60003091D301061717072807390740F718CF29
:100A70000E9409012091CE013091CF01A90145507A
:100A800051092091D0013091D101FA01E21BF30B01
:100A9000CF01860F971F06CF60E083E00E948C0095
:100AA00079CFA1E21A2EAA1BBB1BFD010DC0AA1F04
:100AB000BB1FEE1FFF1FA217B307E407F50720F0C7
:100AC000A21BB30BE40BF50B661F771F881F991F42
:100AD0001A9469F760957095809590959B01AC018B
:100AE000BD01CF010895EE0FFF1F0590F491E02D99
:060AF0000994F894FFCF09
:100AF60000000000CE012E015B011B028C016A0181
:060B06007E010D0A000053
:00000001FF
